{
  "_format": "hh-sol-artifact-1",
  "contractName": "GullakFactory",
  "sourceName": "contracts/GullakFactory.sol",
  "abi": [
    {
      "inputs": [],
      "stateMutability": "nonpayable",
      "type": "constructor"
    },
    {
      "anonymous": false,
      "inputs": [
        {
          "indexed": false,
          "internalType": "string",
          "name": "tokenName",
          "type": "string"
        },
        {
          "indexed": false,
          "internalType": "string",
          "name": "tokenSymbol",
          "type": "string"
        },
        {
          "indexed": false,
          "internalType": "uint256",
          "name": "endtime",
          "type": "uint256"
        }
      ],
      "name": "vaultCreated",
      "type": "event"
    },
    {
      "inputs": [
        {
          "internalType": "string",
          "name": "_tokenName",
          "type": "string"
        },
        {
          "internalType": "string",
          "name": "_tokenSymbol",
          "type": "string"
        },
        {
          "internalType": "uint256",
          "name": "_endtime",
          "type": "uint256"
        }
      ],
      "name": "create",
      "outputs": [
        {
          "internalType": "contract Gullak",
          "name": "",
          "type": "address"
        }
      ],
      "stateMutability": "nonpayable",
      "type": "function"
    },
    {
      "inputs": [],
      "name": "getAll",
      "outputs": [
        {
          "internalType": "contract Gullak[]",
          "name": "",
          "type": "address[]"
        }
      ],
      "stateMutability": "view",
      "type": "function"
    },
    {
      "inputs": [],
      "name": "getBalance",
      "outputs": [
        {
          "internalType": "uint256",
          "name": "",
          "type": "uint256"
        }
      ],
      "stateMutability": "view",
      "type": "function"
    },
    {
      "inputs": [
        {
          "internalType": "uint256",
          "name": "",
          "type": "uint256"
        }
      ],
      "name": "vaultAddresses",
      "outputs": [
        {
          "internalType": "contract Gullak",
          "name": "",
          "type": "address"
        }
      ],
      "stateMutability": "view",
      "type": "function"
    }
  ],
  "bytecode": "0x608060405234801561001057600080fd5b50336000806101000a81548173ffffffffffffffffffffffffffffffffffffffff021916908373ffffffffffffffffffffffffffffffffffffffff1602179055506129ea806100606000396000f3fe60806040523480156200001157600080fd5b5060043610620000525760003560e01c806312065fe014620000575780633ca6d100146200007957806353ed514314620000af578063d7bfe38614620000d1575b600080fd5b6200006162000107565b60405162000070919062000692565b60405180910390f35b620000976004803603810190620000919190620003ee565b6200011d565b604051620000a69190620005cf565b60405180910390f35b620000b962000287565b604051620000c89190620005ab565b60405180910390f35b620000ef6004803603810190620000e9919062000476565b62000317565b604051620000fe9190620005cf565b60405180910390f35b600060184762000118919062000763565b905090565b60008060009054906101000a900473ffffffffffffffffffffffffffffffffffffffff1673ffffffffffffffffffffffffffffffffffffffff163373ffffffffffffffffffffffffffffffffffffffff16146200017957600080fd5b6000848460008054906101000a900473ffffffffffffffffffffffffffffffffffffffff1685604051620001ad9062000357565b620001bc9493929190620005ec565b604051809103906000f080158015620001d9573d6000803e3d6000fd5b5090506001819080600181540180825580915050600190039060005260206000200160009091909190916101000a81548173ffffffffffffffffffffffffffffffffffffffff021916908373ffffffffffffffffffffffffffffffffffffffff1602179055507f12240af8e81308f3105a7d76474e9d5fd4df112dcda8bbc794c74b534d75889d858585604051620002749392919062000647565b60405180910390a1809150509392505050565b606060018054806020026020016040519081016040528092919081815260200182805480156200030d57602002820191906000526020600020905b8160009054906101000a900473ffffffffffffffffffffffffffffffffffffffff1673ffffffffffffffffffffffffffffffffffffffff1681526020019060010190808311620002c2575b5050505050905090565b600181815481106200032857600080fd5b906000526020600020016000915054906101000a900473ffffffffffffffffffffffffffffffffffffffff1681565b6120af806200090683390190565b60006200037c6200037684620006d8565b620006af565b9050828152602081018484840111156200039557600080fd5b620003a284828562000801565b509392505050565b600082601f830112620003bc57600080fd5b8135620003ce84826020860162000365565b91505092915050565b600081359050620003e881620008eb565b92915050565b6000806000606084860312156200040457600080fd5b600084013567ffffffffffffffff8111156200041f57600080fd5b6200042d86828701620003aa565b935050602084013567ffffffffffffffff8111156200044b57600080fd5b6200045986828701620003aa565b92505060406200046c86828701620003d7565b9150509250925092565b6000602082840312156200048957600080fd5b60006200049984828501620003d7565b91505092915050565b6000620004b0838362000537565b60208301905092915050565b620004c7816200079b565b82525050565b6000620004da826200071e565b620004e6818562000741565b9350620004f3836200070e565b8060005b838110156200052a5781516200050e8882620004a2565b97506200051b8362000734565b925050600181019050620004f7565b5085935050505092915050565b6200054281620007d9565b82525050565b6200055381620007d9565b82525050565b6000620005668262000729565b62000572818562000752565b93506200058481856020860162000810565b6200058f81620008da565b840191505092915050565b620005a581620007cf565b82525050565b60006020820190508181036000830152620005c78184620004cd565b905092915050565b6000602082019050620005e6600083018462000548565b92915050565b6000608082019050818103600083015262000608818762000559565b905081810360208301526200061e818662000559565b90506200062f6040830185620004bc565b6200063e60608301846200059a565b95945050505050565b6000606082019050818103600083015262000663818662000559565b9050818103602083015262000679818562000559565b90506200068a60408301846200059a565b949350505050565b6000602082019050620006a960008301846200059a565b92915050565b6000620006bb620006ce565b9050620006c9828262000846565b919050565b6000604051905090565b600067ffffffffffffffff821115620006f657620006f5620008ab565b5b6200070182620008da565b9050602081019050919050565b6000819050602082019050919050565b600081519050919050565b600081519050919050565b6000602082019050919050565b600082825260208201905092915050565b600082825260208201905092915050565b60006200077082620007cf565b91506200077d83620007cf565b92508262000790576200078f6200087c565b5b828204905092915050565b6000620007a882620007af565b9050919050565b600073ffffffffffffffffffffffffffffffffffffffff82169050919050565b6000819050919050565b6000620007e682620007ed565b9050919050565b6000620007fa82620007af565b9050919050565b82818337600083830152505050565b60005b838110156200083057808201518184015260208101905062000813565b8381111562000840576000848401525b50505050565b6200085182620008da565b810181811067ffffffffffffffff82111715620008735762000872620008ab565b5b80604052505050565b7f4e487b7100000000000000000000000000000000000000000000000000000000600052601260045260246000fd5b7f4e487b7100000000000000000000000000000000000000000000000000000000600052604160045260246000fd5b6000601f19601f8301169050919050565b620008f681620007cf565b81146200090257600080fd5b5056fe60806040523480156200001157600080fd5b50604051620020af380380620020af833981810160405281019062000037919062000241565b8383816003908051906020019062000051929190620000f1565b5080600490805190602001906200006a929190620000f1565b50505081600560006101000a81548173ffffffffffffffffffffffffffffffffffffffff021916908373ffffffffffffffffffffffffffffffffffffffff160217905550806008819055508360069080519060200190620000cd929190620000f1565b508260079080519060200190620000e6929190620000f1565b5050505050620004c1565b828054620000ff90620003b2565b90600052602060002090601f0160209004810192826200012357600085556200016f565b82601f106200013e57805160ff19168380011785556200016f565b828001600101855582156200016f579182015b828111156200016e57825182559160200191906001019062000151565b5b5090506200017e919062000182565b5090565b5b808211156200019d57600081600090555060010162000183565b5090565b6000620001b8620001b28462000308565b620002df565b905082815260208101848484011115620001d157600080fd5b620001de8482856200037c565b509392505050565b600081519050620001f7816200048d565b92915050565b600082601f8301126200020f57600080fd5b815162000221848260208601620001a1565b91505092915050565b6000815190506200023b81620004a7565b92915050565b600080600080608085870312156200025857600080fd5b600085015167ffffffffffffffff8111156200027357600080fd5b6200028187828801620001fd565b945050602085015167ffffffffffffffff8111156200029f57600080fd5b620002ad87828801620001fd565b9350506040620002c087828801620001e6565b9250506060620002d3878288016200022a565b91505092959194509250565b6000620002eb620002fe565b9050620002f98282620003e8565b919050565b6000604051905090565b600067ffffffffffffffff8211156200032657620003256200044d565b5b62000331826200047c565b9050602081019050919050565b60006200034b8262000352565b9050919050565b600073ffffffffffffffffffffffffffffffffffffffff82169050919050565b6000819050919050565b60005b838110156200039c5780820151818401526020810190506200037f565b83811115620003ac576000848401525b50505050565b60006002820490506001821680620003cb57607f821691505b60208210811415620003e257620003e16200041e565b5b50919050565b620003f3826200047c565b810181811067ffffffffffffffff821117156200041557620004146200044d565b5b80604052505050565b7f4e487b7100000000000000000000000000000000000000000000000000000000600052602260045260246000fd5b7f4e487b7100000000000000000000000000000000000000000000000000000000600052604160045260246000fd5b6000601f19601f8301169050919050565b62000498816200033e565b8114620004a457600080fd5b50565b620004b28162000372565b8114620004be57600080fd5b50565b611bde80620004d16000396000f3fe608060405234801561001057600080fd5b50600436106101165760003560e01c80636c02a931116100a257806395d89b411161007157806395d89b41146102e5578063a457c2d714610303578063a9059cbb14610333578063b721ef6e14610363578063dd62ed3e1461039357610116565b80636c02a9311461025d57806370a082311461027b5780637b61c320146102ab57806391e7d840146102c957610116565b806323b872dd116100e957806323b872dd146101915780632ca126f8146101c1578063313ce567146101df57806336720309146101fd578063395093511461022d57610116565b806306fdde031461011b578063095ea7b3146101395780631249c58b1461016957806318160ddd14610173575b600080fd5b6101236103c3565b6040516101309190611612565b60405180910390f35b610153600480360381019061014e9190611375565b610455565b60405161016091906115f7565b60405180910390f35b610171610478565b005b61017b610609565b6040516101889190611734565b60405180910390f35b6101ab60048036038101906101a69190611326565b610613565b6040516101b891906115f7565b60405180910390f35b6101c9610642565b6040516101d69190611734565b60405180910390f35b6101e7610648565b6040516101f4919061174f565b60405180910390f35b61021760048036038101906102129190611426565b610651565b60405161022491906115dc565b60405180910390f35b61024760048036038101906102429190611375565b610690565b60405161025491906115f7565b60405180910390f35b6102656106c7565b6040516102729190611612565b60405180910390f35b610295600480360381019061029091906112c1565b610755565b6040516102a29190611734565b60405180910390f35b6102b361079d565b6040516102c09190611612565b60405180910390f35b6102e360048036038101906102de91906113b1565b61082b565b005b6102ed610943565b6040516102fa9190611612565b60405180910390f35b61031d60048036038101906103189190611375565b6109d5565b60405161032a91906115f7565b60405180910390f35b61034d60048036038101906103489190611375565b610a4c565b60405161035a91906115f7565b60405180910390f35b61037d600480360381019061037891906112c1565b610a6f565b60405161038a9190611734565b60405180910390f35b6103ad60048036038101906103a891906112ea565b610a87565b6040516103ba9190611734565b60405180910390f35b6060600380546103d290611864565b80601f01602080910402602001604051908101604052809291908181526020018280546103fe90611864565b801561044b5780601f106104205761010080835404028352916020019161044b565b820191906000526020600020905b81548152906001019060200180831161042e57829003601f168201915b5050505050905090565b600080610460610b0e565b905061046d818585610b16565b600191505092915050565b600560009054906101000a900473ffffffffffffffffffffffffffffffffffffffff1673ffffffffffffffffffffffffffffffffffffffff163373ffffffffffffffffffffffffffffffffffffffff16146104d257600080fd5b60005b600a80549050811015610606576105f3600a828154811061051f577f4e487b7100000000000000000000000000000000000000000000000000000000600052603260045260246000fd5b9060005260206000200160009054906101000a900473ffffffffffffffffffffffffffffffffffffffff1660096000600a8581548110610588577f4e487b7100000000000000000000000000000000000000000000000000000000600052603260045260246000fd5b9060005260206000200160009054906101000a900473ffffffffffffffffffffffffffffffffffffffff1673ffffffffffffffffffffffffffffffffffffffff1673ffffffffffffffffffffffffffffffffffffffff16815260200190815260200160002054610ce1565b80806105fe90611896565b9150506104d5565b50565b6000600254905090565b60008061061e610b0e565b905061062b858285610e41565b610636858585610ecd565b60019150509392505050565b60085481565b60006012905090565b600a818154811061066157600080fd5b906000526020600020016000915054906101000a900473ffffffffffffffffffffffffffffffffffffffff1681565b60008061069b610b0e565b90506106bc8185856106ad8589610a87565b6106b79190611786565b610b16565b600191505092915050565b600680546106d490611864565b80601f016020809104026020016040519081016040528092919081815260200182805461070090611864565b801561074d5780601f106107225761010080835404028352916020019161074d565b820191906000526020600020905b81548152906001019060200180831161073057829003601f168201915b505050505081565b60008060008373ffffffffffffffffffffffffffffffffffffffff1673ffffffffffffffffffffffffffffffffffffffff168152602001908152602001600020549050919050565b600780546107aa90611864565b80601f01602080910402602001604051908101604052809291908181526020018280546107d690611864565b80156108235780601f106107f857610100808354040283529160200191610823565b820191906000526020600020905b81548152906001019060200180831161080657829003601f168201915b505050505081565b600560009054906101000a900473ffffffffffffffffffffffffffffffffffffffff1673ffffffffffffffffffffffffffffffffffffffff163373ffffffffffffffffffffffffffffffffffffffff161461088557600080fd5b60005b8484905081101561093c576109298585838181106108cf577f4e487b7100000000000000000000000000000000000000000000000000000000600052603260045260246000fd5b90506020020160208101906108e491906112c1565b84848481811061091d577f4e487b7100000000000000000000000000000000000000000000000000000000600052603260045260246000fd5b9050602002013561114e565b808061093490611896565b915050610888565b5050505050565b60606004805461095290611864565b80601f016020809104026020016040519081016040528092919081815260200182805461097e90611864565b80156109cb5780601f106109a0576101008083540402835291602001916109cb565b820191906000526020600020905b8154815290600101906020018083116109ae57829003601f168201915b5050505050905090565b6000806109e0610b0e565b905060006109ee8286610a87565b905083811015610a33576040517f08c379a0000000000000000000000000000000000000000000000000000000008152600401610a2a906116f4565b60405180910390fd5b610a408286868403610b16565b60019250505092915050565b600080610a57610b0e565b9050610a64818585610ecd565b600191505092915050565b60096020528060005260406000206000915090505481565b6000600160008473ffffffffffffffffffffffffffffffffffffffff1673ffffffffffffffffffffffffffffffffffffffff16815260200190815260200160002060008373ffffffffffffffffffffffffffffffffffffffff1673ffffffffffffffffffffffffffffffffffffffff16815260200190815260200160002054905092915050565b600033905090565b600073ffffffffffffffffffffffffffffffffffffffff168373ffffffffffffffffffffffffffffffffffffffff161415610b86576040517f08c379a0000000000000000000000000000000000000000000000000000000008152600401610b7d906116d4565b60405180910390fd5b600073ffffffffffffffffffffffffffffffffffffffff168273ffffffffffffffffffffffffffffffffffffffff161415610bf6576040517f08c379a0000000000000000000000000000000000000000000000000000000008152600401610bed90611654565b60405180910390fd5b80600160008573ffffffffffffffffffffffffffffffffffffffff1673ffffffffffffffffffffffffffffffffffffffff16815260200190815260200160002060008473ffffffffffffffffffffffffffffffffffffffff1673ffffffffffffffffffffffffffffffffffffffff168152602001908152602001600020819055508173ffffffffffffffffffffffffffffffffffffffff168373ffffffffffffffffffffffffffffffffffffffff167f8c5be1e5ebec7d5bd14f71427d1e84f3dd0314c0f7b2291e5b200ac8c7c3b92583604051610cd49190611734565b60405180910390a3505050565b600073ffffffffffffffffffffffffffffffffffffffff168273ffffffffffffffffffffffffffffffffffffffff161415610d51576040517f08c379a0000000000000000000000000000000000000000000000000000000008152600401610d4890611714565b60405180910390fd5b610d5d600083836111f9565b8060026000828254610d6f9190611786565b92505081905550806000808473ffffffffffffffffffffffffffffffffffffffff1673ffffffffffffffffffffffffffffffffffffffff1681526020019081526020016000206000828254610dc49190611786565b925050819055508173ffffffffffffffffffffffffffffffffffffffff16600073ffffffffffffffffffffffffffffffffffffffff167fddf252ad1be2c89b69c2b068fc378daa952ba7f163c4a11628f55a4df523b3ef83604051610e299190611734565b60405180910390a3610e3d600083836111fe565b5050565b6000610e4d8484610a87565b90507fffffffffffffffffffffffffffffffffffffffffffffffffffffffffffffffff8114610ec75781811015610eb9576040517f08c379a0000000000000000000000000000000000000000000000000000000008152600401610eb090611674565b60405180910390fd5b610ec68484848403610b16565b5b50505050565b600073ffffffffffffffffffffffffffffffffffffffff168373ffffffffffffffffffffffffffffffffffffffff161415610f3d576040517f08c379a0000000000000000000000000000000000000000000000000000000008152600401610f34906116b4565b60405180910390fd5b600073ffffffffffffffffffffffffffffffffffffffff168273ffffffffffffffffffffffffffffffffffffffff161415610fad576040517f08c379a0000000000000000000000000000000000000000000000000000000008152600401610fa490611634565b60405180910390fd5b610fb88383836111f9565b60008060008573ffffffffffffffffffffffffffffffffffffffff1673ffffffffffffffffffffffffffffffffffffffff1681526020019081526020016000205490508181101561103e576040517f08c379a000000000000000000000000000000000000000000000000000000000815260040161103590611694565b60405180910390fd5b8181036000808673ffffffffffffffffffffffffffffffffffffffff1673ffffffffffffffffffffffffffffffffffffffff16815260200190815260200160002081905550816000808573ffffffffffffffffffffffffffffffffffffffff1673ffffffffffffffffffffffffffffffffffffffff16815260200190815260200160002060008282546110d19190611786565b925050819055508273ffffffffffffffffffffffffffffffffffffffff168473ffffffffffffffffffffffffffffffffffffffff167fddf252ad1be2c89b69c2b068fc378daa952ba7f163c4a11628f55a4df523b3ef846040516111359190611734565b60405180910390a36111488484846111fe565b50505050565b80600960008473ffffffffffffffffffffffffffffffffffffffff1673ffffffffffffffffffffffffffffffffffffffff16815260200190815260200160002081905550600a829080600181540180825580915050600190039060005260206000200160009091909190916101000a81548173ffffffffffffffffffffffffffffffffffffffff021916908373ffffffffffffffffffffffffffffffffffffffff1602179055505050565b505050565b505050565b60008135905061121281611b7a565b92915050565b60008083601f84011261122a57600080fd5b8235905067ffffffffffffffff81111561124357600080fd5b60208301915083602082028301111561125b57600080fd5b9250929050565b60008083601f84011261127457600080fd5b8235905067ffffffffffffffff81111561128d57600080fd5b6020830191508360208202830111156112a557600080fd5b9250929050565b6000813590506112bb81611b91565b92915050565b6000602082840312156112d357600080fd5b60006112e184828501611203565b91505092915050565b600080604083850312156112fd57600080fd5b600061130b85828601611203565b925050602061131c85828601611203565b9150509250929050565b60008060006060848603121561133b57600080fd5b600061134986828701611203565b935050602061135a86828701611203565b925050604061136b868287016112ac565b9150509250925092565b6000806040838503121561138857600080fd5b600061139685828601611203565b92505060206113a7858286016112ac565b9150509250929050565b600080600080604085870312156113c757600080fd5b600085013567ffffffffffffffff8111156113e157600080fd5b6113ed87828801611218565b9450945050602085013567ffffffffffffffff81111561140c57600080fd5b61141887828801611262565b925092505092959194509250565b60006020828403121561143857600080fd5b6000611446848285016112ac565b91505092915050565b611458816117dc565b82525050565b611467816117ee565b82525050565b60006114788261176a565b6114828185611775565b9350611492818560208601611831565b61149b8161193d565b840191505092915050565b60006114b3602383611775565b91506114be8261194e565b604082019050919050565b60006114d6602283611775565b91506114e18261199d565b604082019050919050565b60006114f9601d83611775565b9150611504826119ec565b602082019050919050565b600061151c602683611775565b915061152782611a15565b604082019050919050565b600061153f602583611775565b915061154a82611a64565b604082019050919050565b6000611562602483611775565b915061156d82611ab3565b604082019050919050565b6000611585602583611775565b915061159082611b02565b604082019050919050565b60006115a8601f83611775565b91506115b382611b51565b602082019050919050565b6115c78161181a565b82525050565b6115d681611824565b82525050565b60006020820190506115f1600083018461144f565b92915050565b600060208201905061160c600083018461145e565b92915050565b6000602082019050818103600083015261162c818461146d565b905092915050565b6000602082019050818103600083015261164d816114a6565b9050919050565b6000602082019050818103600083015261166d816114c9565b9050919050565b6000602082019050818103600083015261168d816114ec565b9050919050565b600060208201905081810360008301526116ad8161150f565b9050919050565b600060208201905081810360008301526116cd81611532565b9050919050565b600060208201905081810360008301526116ed81611555565b9050919050565b6000602082019050818103600083015261170d81611578565b9050919050565b6000602082019050818103600083015261172d8161159b565b9050919050565b600060208201905061174960008301846115be565b92915050565b600060208201905061176460008301846115cd565b92915050565b600081519050919050565b600082825260208201905092915050565b60006117918261181a565b915061179c8361181a565b9250827fffffffffffffffffffffffffffffffffffffffffffffffffffffffffffffffff038211156117d1576117d06118df565b5b828201905092915050565b60006117e7826117fa565b9050919050565b60008115159050919050565b600073ffffffffffffffffffffffffffffffffffffffff82169050919050565b6000819050919050565b600060ff82169050919050565b60005b8381101561184f578082015181840152602081019050611834565b8381111561185e576000848401525b50505050565b6000600282049050600182168061187c57607f821691505b602082108114156118905761188f61190e565b5b50919050565b60006118a18261181a565b91507fffffffffffffffffffffffffffffffffffffffffffffffffffffffffffffffff8214156118d4576118d36118df565b5b600182019050919050565b7f4e487b7100000000000000000000000000000000000000000000000000000000600052601160045260246000fd5b7f4e487b7100000000000000000000000000000000000000000000000000000000600052602260045260246000fd5b6000601f19601f8301169050919050565b7f45524332303a207472616e7366657220746f20746865207a65726f206164647260008201527f6573730000000000000000000000000000000000000000000000000000000000602082015250565b7f45524332303a20617070726f766520746f20746865207a65726f20616464726560008201527f7373000000000000000000000000000000000000000000000000000000000000602082015250565b7f45524332303a20696e73756666696369656e7420616c6c6f77616e6365000000600082015250565b7f45524332303a207472616e7366657220616d6f756e742065786365656473206260008201527f616c616e63650000000000000000000000000000000000000000000000000000602082015250565b7f45524332303a207472616e736665722066726f6d20746865207a65726f20616460008201527f6472657373000000000000000000000000000000000000000000000000000000602082015250565b7f45524332303a20617070726f76652066726f6d20746865207a65726f2061646460008201527f7265737300000000000000000000000000000000000000000000000000000000602082015250565b7f45524332303a2064656372656173656420616c6c6f77616e63652062656c6f7760008201527f207a65726f000000000000000000000000000000000000000000000000000000602082015250565b7f45524332303a206d696e7420746f20746865207a65726f206164647265737300600082015250565b611b83816117dc565b8114611b8e57600080fd5b50565b611b9a8161181a565b8114611ba557600080fd5b5056fea26469706673582212209eed82a6547ca5f54b1639bbaac832e17c1aa5e9a877d9efa8257fd873aa8cb764736f6c63430008040033a2646970667358221220837b47fc0088268523dfb800b91c902121365cde5bbc8528cc71bdce1e20e55464736f6c63430008040033",
  "linkReferences": {},
  "deployedLinkReferences": {}
}